{
  "contractName": "StreamityContract",
  "abi": [
    {
      "constant": true,
      "inputs": [],
      "name": "avaliableSupply",
      "outputs": [
        {
          "name": "",
          "type": "uint256"
        }
      ],
      "payable": false,
      "stateMutability": "view",
      "type": "function"
    },
    {
      "constant": true,
      "inputs": [],
      "name": "name",
      "outputs": [
        {
          "name": "",
          "type": "string"
        }
      ],
      "payable": false,
      "stateMutability": "view",
      "type": "function"
    },
    {
      "constant": false,
      "inputs": [
        {
          "name": "_spender",
          "type": "address"
        },
        {
          "name": "_value",
          "type": "uint256"
        }
      ],
      "name": "approve",
      "outputs": [
        {
          "name": "success",
          "type": "bool"
        }
      ],
      "payable": false,
      "stateMutability": "nonpayable",
      "type": "function"
    },
    {
      "constant": true,
      "inputs": [],
      "name": "totalSupply",
      "outputs": [
        {
          "name": "",
          "type": "uint256"
        }
      ],
      "payable": false,
      "stateMutability": "view",
      "type": "function"
    },
    {
      "constant": false,
      "inputs": [
        {
          "name": "_from",
          "type": "address"
        },
        {
          "name": "_to",
          "type": "address"
        },
        {
          "name": "_value",
          "type": "uint256"
        }
      ],
      "name": "transferFrom",
      "outputs": [
        {
          "name": "success",
          "type": "bool"
        }
      ],
      "payable": false,
      "stateMutability": "nonpayable",
      "type": "function"
    },
    {
      "constant": true,
      "inputs": [],
      "name": "ICO",
      "outputs": [
        {
          "name": "tokens",
          "type": "uint256"
        },
        {
          "name": "startDate",
          "type": "uint256"
        },
        {
          "name": "endDate",
          "type": "uint256"
        },
        {
          "name": "discount",
          "type": "uint8"
        },
        {
          "name": "discountFirstDayICO",
          "type": "uint8"
        }
      ],
      "payable": false,
      "stateMutability": "view",
      "type": "function"
    },
    {
      "constant": false,
      "inputs": [
        {
          "name": "_to",
          "type": "address"
        },
        {
          "name": "amount",
          "type": "uint256"
        }
      ],
      "name": "transferEthFromContract",
      "outputs": [],
      "payable": false,
      "stateMutability": "nonpayable",
      "type": "function"
    },
    {
      "constant": true,
      "inputs": [],
      "name": "decimals",
      "outputs": [
        {
          "name": "",
          "type": "uint256"
        }
      ],
      "payable": false,
      "stateMutability": "view",
      "type": "function"
    },
    {
      "constant": false,
      "inputs": [],
      "name": "unpause",
      "outputs": [],
      "payable": false,
      "stateMutability": "nonpayable",
      "type": "function"
    },
    {
      "constant": false,
      "inputs": [
        {
          "name": "_value",
          "type": "uint256"
        }
      ],
      "name": "burn",
      "outputs": [
        {
          "name": "success",
          "type": "bool"
        }
      ],
      "payable": false,
      "stateMutability": "nonpayable",
      "type": "function"
    },
    {
      "constant": false,
      "inputs": [
        {
          "name": "_tokens",
          "type": "uint256"
        },
        {
          "name": "_startDate",
          "type": "uint256"
        },
        {
          "name": "_endDate",
          "type": "uint256"
        },
        {
          "name": "_discount",
          "type": "uint8"
        },
        {
          "name": "_discountFirstDayICO",
          "type": "uint8"
        }
      ],
      "name": "startCrowd",
      "outputs": [],
      "payable": false,
      "stateMutability": "nonpayable",
      "type": "function"
    },
    {
      "constant": true,
      "inputs": [],
      "name": "paused",
      "outputs": [
        {
          "name": "",
          "type": "bool"
        }
      ],
      "payable": false,
      "stateMutability": "view",
      "type": "function"
    },
    {
      "constant": false,
      "inputs": [
        {
          "name": "_spender",
          "type": "address"
        },
        {
          "name": "_subtractedValue",
          "type": "uint256"
        }
      ],
      "name": "decreaseApproval",
      "outputs": [
        {
          "name": "success",
          "type": "bool"
        }
      ],
      "payable": false,
      "stateMutability": "nonpayable",
      "type": "function"
    },
    {
      "constant": true,
      "inputs": [
        {
          "name": "",
          "type": "address"
        }
      ],
      "name": "balanceOf",
      "outputs": [
        {
          "name": "",
          "type": "uint256"
        }
      ],
      "payable": false,
      "stateMutability": "view",
      "type": "function"
    },
    {
      "constant": false,
      "inputs": [
        {
          "name": "_from",
          "type": "address"
        },
        {
          "name": "_value",
          "type": "uint256"
        }
      ],
      "name": "burnFrom",
      "outputs": [
        {
          "name": "success",
          "type": "bool"
        }
      ],
      "payable": false,
      "stateMutability": "nonpayable",
      "type": "function"
    },
    {
      "constant": false,
      "inputs": [],
      "name": "pause",
      "outputs": [],
      "payable": false,
      "stateMutability": "nonpayable",
      "type": "function"
    },
    {
      "constant": true,
      "inputs": [],
      "name": "buyPrice",
      "outputs": [
        {
          "name": "",
          "type": "uint256"
        }
      ],
      "payable": false,
      "stateMutability": "view",
      "type": "function"
    },
    {
      "constant": true,
      "inputs": [],
      "name": "symbol",
      "outputs": [
        {
          "name": "",
          "type": "string"
        }
      ],
      "payable": false,
      "stateMutability": "view",
      "type": "function"
    },
    {
      "constant": false,
      "inputs": [
        {
          "name": "_numerator",
          "type": "uint256"
        },
        {
          "name": "_denominator",
          "type": "uint256"
        }
      ],
      "name": "changeRate",
      "outputs": [
        {
          "name": "success",
          "type": "bool"
        }
      ],
      "payable": false,
      "stateMutability": "nonpayable",
      "type": "function"
    },
    {
      "constant": false,
      "inputs": [
        {
          "name": "_to",
          "type": "address"
        },
        {
          "name": "_value",
          "type": "uint256"
        }
      ],
      "name": "transfer",
      "outputs": [],
      "payable": false,
      "stateMutability": "nonpayable",
      "type": "function"
    },
    {
      "constant": true,
      "inputs": [],
      "name": "stage",
      "outputs": [
        {
          "name": "",
          "type": "uint256"
        }
      ],
      "payable": false,
      "stateMutability": "view",
      "type": "function"
    },
    {
      "constant": true,
      "inputs": [],
      "name": "startIcoDate",
      "outputs": [
        {
          "name": "",
          "type": "uint256"
        }
      ],
      "payable": false,
      "stateMutability": "view",
      "type": "function"
    },
    {
      "constant": false,
      "inputs": [
        {
          "name": "_spender",
          "type": "address"
        },
        {
          "name": "_value",
          "type": "uint256"
        },
        {
          "name": "_extraData",
          "type": "bytes"
        }
      ],
      "name": "approveAndCall",
      "outputs": [
        {
          "name": "success",
          "type": "bool"
        }
      ],
      "payable": false,
      "stateMutability": "nonpayable",
      "type": "function"
    },
    {
      "constant": false,
      "inputs": [
        {
          "name": "_to",
          "type": "address"
        },
        {
          "name": "_value",
          "type": "uint256"
        }
      ],
      "name": "transferTokensFromContract",
      "outputs": [],
      "payable": false,
      "stateMutability": "nonpayable",
      "type": "function"
    },
    {
      "constant": false,
      "inputs": [
        {
          "name": "_spender",
          "type": "address"
        },
        {
          "name": "_addedValue",
          "type": "uint256"
        }
      ],
      "name": "increaseApproval",
      "outputs": [
        {
          "name": "success",
          "type": "bool"
        }
      ],
      "payable": false,
      "stateMutability": "nonpayable",
      "type": "function"
    },
    {
      "constant": true,
      "inputs": [],
      "name": "weisRaised",
      "outputs": [
        {
          "name": "",
          "type": "uint256"
        }
      ],
      "payable": false,
      "stateMutability": "view",
      "type": "function"
    },
    {
      "constant": true,
      "inputs": [
        {
          "name": "",
          "type": "address"
        },
        {
          "name": "",
          "type": "address"
        }
      ],
      "name": "allowance",
      "outputs": [
        {
          "name": "",
          "type": "uint256"
        }
      ],
      "payable": false,
      "stateMutability": "view",
      "type": "function"
    },
    {
      "constant": false,
      "inputs": [
        {
          "name": "_investor",
          "type": "address"
        },
        {
          "name": "_amount",
          "type": "uint256"
        }
      ],
      "name": "transferWeb3js",
      "outputs": [],
      "payable": false,
      "stateMutability": "nonpayable",
      "type": "function"
    },
    {
      "constant": false,
      "inputs": [
        {
          "name": "newOwner",
          "type": "address"
        }
      ],
      "name": "transferOwnership",
      "outputs": [],
      "payable": false,
      "stateMutability": "nonpayable",
      "type": "function"
    },
    {
      "inputs": [],
      "payable": false,
      "stateMutability": "nonpayable",
      "type": "constructor"
    },
    {
      "payable": true,
      "stateMutability": "payable",
      "type": "fallback"
    },
    {
      "anonymous": false,
      "inputs": [
        {
          "indexed": false,
          "name": "info",
          "type": "string"
        }
      ],
      "name": "CrowdSaleFinished",
      "type": "event"
    },
    {
      "anonymous": false,
      "inputs": [],
      "name": "EPause",
      "type": "event"
    },
    {
      "anonymous": false,
      "inputs": [],
      "name": "EUnpause",
      "type": "event"
    },
    {
      "anonymous": false,
      "inputs": [
        {
          "indexed": true,
          "name": "from",
          "type": "address"
        },
        {
          "indexed": true,
          "name": "to",
          "type": "address"
        },
        {
          "indexed": false,
          "name": "value",
          "type": "uint256"
        }
      ],
      "name": "Transfer",
      "type": "event"
    },
    {
      "anonymous": false,
      "inputs": [
        {
          "indexed": true,
          "name": "from",
          "type": "address"
        },
        {
          "indexed": false,
          "name": "value",
          "type": "uint256"
        }
      ],
      "name": "Burn",
      "type": "event"
    },
    {
      "anonymous": false,
      "inputs": [
        {
          "indexed": true,
          "name": "_owner",
          "type": "address"
        },
        {
          "indexed": true,
          "name": "_spender",
          "type": "address"
        },
        {
          "indexed": false,
          "name": "_value",
          "type": "uint256"
        }
      ],
      "name": "Approval",
      "type": "event"
    },
    {
      "anonymous": false,
      "inputs": [
        {
          "indexed": true,
          "name": "previousOwner",
          "type": "address"
        },
        {
          "indexed": true,
          "name": "newOwner",
          "type": "address"
        }
      ],
      "name": "OwnershipTransferred",
      "type": "event"
    }
  ],
  "bytecode": "0x60606040526012600355600354600a0a600455670de0b6b3a76400006007556001600a60006101000a81548160ff0219169083151502179055506000600b556000600c5534156200004f57600080fd5b6307bfa4806040805190810160405280600981526020017f53747265616d69747900000000000000000000000000000000000000000000008152506040805190810160405280600381526020017f53544d0000000000000000000000000000000000000000000000000000000000815250336000806101000a81548173ffffffffffffffffffffffffffffffffffffffff021916908373ffffffffffffffffffffffffffffffffffffffff1602179055506200012560045484620001f26401000000000262002527179091906401000000009004565b600581905550600554600860003073ffffffffffffffffffffffffffffffffffffffff1673ffffffffffffffffffffffffffffffffffffffff16815260200190815260200160002081905550600860003073ffffffffffffffffffffffffffffffffffffffff1673ffffffffffffffffffffffffffffffffffffffff168152602001908152602001600020546006819055508160019080519060200190620001cf92919062000228565b508060029080519060200190620001e892919062000228565b50505050620002d7565b600080828402905060008414806200021557508284828115156200021257fe5b04145b15156200021e57fe5b8091505092915050565b828054600181600116156101000203166002900490600052602060002090601f016020900481019282601f106200026b57805160ff19168380011785556200029c565b828001600101855582156200029c579182015b828111156200029b5782518255916020019190600101906200027e565b5b509050620002ab9190620002af565b5090565b620002d491905b80821115620002d0576000816000905550600101620002b6565b5090565b90565b6129d480620002e76000396000f300606060405260043610610175576000357c0100000000000000000000000000000000000000000000000000000000900463ffffffff16806304a84938146102b657806306fdde03146102df578063095ea7b31461036d57806318160ddd146103c757806323b872dd146103f0578063273ba6bb1461046957806331198d19146104ba578063313ce567146104fc5780633f4ba83a1461052557806342966c681461053a5780635bda1af0146105755780635c975abb146105c257806366188463146105ef57806370a082311461064957806379cc6790146106965780638456cb59146106f05780638620410b1461070557806395d89b411461072e578063a883b0c4146107bc578063a9059cbb14610800578063c040e6b814610842578063c99d9ef71461086b578063cae9ca5114610894578063d0973af814610931578063d73dd62314610973578063da5f838d146109cd578063dd62ed3e146109f6578063ee67575f14610a62578063f2fde38b14610aa4575b67016345785d8a00003410158015610196575068056bc75e2d631000003411155b151561019e57fe5b600d6001015442101515156101b257600080fd5b600d6002015442111561026b576101c7610add565b7f85b8d86f52e6555fa7f5d8f5e1fe2dbca432512924156cc733ad10ba881c121c6101f0610b26565b6040518080602001828103825283818151815260200191508051906020019080838360005b83811015610230578082015181840152602081019050610215565b50505050905090810190601f16801561025d5780820380516001836020036101000a031916815260200191505b509250505060405180910390a15b600b54600014151561028f57600b5442101561028657600080fd5b6000600b819055505b6102993334610c8b565b6102ae34601154610f1290919063ffffffff16565b601181905550005b34156102c157600080fd5b6102c9610f30565b6040518082815260200191505060405180910390f35b34156102ea57600080fd5b6102f2610f36565b6040518080602001828103825283818151815260200191508051906020019080838360005b83811015610332578082015181840152602081019050610317565b50505050905090810190601f16801561035f5780820380516001836020036101000a031916815260200191505b509250505060405180910390f35b341561037857600080fd5b6103ad600480803573ffffffffffffffffffffffffffffffffffffffff16906020019091908035906020019091905050610fd4565b604051808215151515815260200191505060405180910390f35b34156103d257600080fd5b6103da611061565b6040518082815260200191505060405180910390f35b34156103fb57600080fd5b61044f600480803573ffffffffffffffffffffffffffffffffffffffff1690602001909190803573ffffffffffffffffffffffffffffffffffffffff16906020019091908035906020019091905050611067565b604051808215151515815260200191505060405180910390f35b341561047457600080fd5b61047c611219565b604051808681526020018581526020018481526020018360ff1660ff1681526020018260ff1660ff1681526020019550505050505060405180910390f35b34156104c557600080fd5b6104fa600480803573ffffffffffffffffffffffffffffffffffffffff16906020019091908035906020019091905050611257565b005b341561050757600080fd5b61050f6112f6565b6040518082815260200191505060405180910390f35b341561053057600080fd5b6105386112fc565b005b341561054557600080fd5b61055b60048080359060200190919050506113a0565b604051808215151515815260200191505060405180910390f35b341561058057600080fd5b6105c0600480803590602001909190803590602001909190803590602001909190803560ff1690602001909190803560ff1690602001909190505061156d565b005b34156105cd57600080fd5b6105d56116ad565b604051808215151515815260200191505060405180910390f35b34156105fa57600080fd5b61062f600480803573ffffffffffffffffffffffffffffffffffffffff169060200190919080359060200190919050506116c0565b604051808215151515815260200191505060405180910390f35b341561065457600080fd5b610680600480803573ffffffffffffffffffffffffffffffffffffffff16906020019091905050611951565b6040518082815260200191505060405180910390f35b34156106a157600080fd5b6106d6600480803573ffffffffffffffffffffffffffffffffffffffff16906020019091908035906020019091905050611969565b604051808215151515815260200191505060405180910390f35b34156106fb57600080fd5b610703611cd1565b005b341561071057600080fd5b610718611d75565b6040518082815260200191505060405180910390f35b341561073957600080fd5b610741611d7b565b6040518080602001828103825283818151815260200191508051906020019080838360005b83811015610781578082015181840152602081019050610766565b50505050905090810190601f1680156107ae5780820380516001836020036101000a031916815260200191505b509250505060405180910390f35b34156107c757600080fd5b6107e66004808035906020019091908035906020019091905050611e19565b604051808215151515815260200191505060405180910390f35b341561080b57600080fd5b610840600480803573ffffffffffffffffffffffffffffffffffffffff16906020019091908035906020019091905050611ec9565b005b341561084d57600080fd5b610855611ed8565b6040518082815260200191505060405180910390f35b341561087657600080fd5b61087e611ede565b6040518082815260200191505060405180910390f35b341561089f57600080fd5b610917600480803573ffffffffffffffffffffffffffffffffffffffff1690602001909190803590602001909190803590602001908201803590602001908080601f01602080910402602001604051908101604052809392919081815260200183838082843782019150505050505091905050611ee4565b604051808215151515815260200191505060405180910390f35b341561093c57600080fd5b610971600480803573ffffffffffffffffffffffffffffffffffffffff169060200190919080359060200190919050506120bd565b005b341561097e57600080fd5b6109b3600480803573ffffffffffffffffffffffffffffffffffffffff16906020019091908035906020019091905050612142565b604051808215151515815260200191505060405180910390f35b34156109d857600080fd5b6109e061233e565b6040518082815260200191505060405180910390f35b3415610a0157600080fd5b610a4c600480803573ffffffffffffffffffffffffffffffffffffffff1690602001909190803573ffffffffffffffffffffffffffffffffffffffff16906020019091905050612344565b6040518082815260200191505060405180910390f35b3415610a6d57600080fd5b610aa2600480803573ffffffffffffffffffffffffffffffffffffffff16906020019091908035906020019091905050612369565b005b3415610aaf57600080fd5b610adb600480803573ffffffffffffffffffffffffffffffffffffffff169060200190919050506123d2565b005b6001600a60006101000a81548160ff0219169083151502179055507fd2ef4ae6592c2a8f5d1c602eaa8a0685727b41b23509703db861621a9614813a60405160405180910390a1565b610b2e612994565b600c5460011415610b76576040805190810160405280600781526020017f5072652d49434f000000000000000000000000000000000000000000000000008152509050610c88565b600c5460021415610bbe576040805190810160405280600f81526020017f49434f20666972737420737461676500000000000000000000000000000000008152509050610c88565b600c5460031415610c06576040805190810160405280601081526020017f49434f207365636f6e64207374616765000000000000000000000000000000008152509050610c88565b600c546004101515610c4f576040805190810160405280600d81526020017f66656174757265207374616765000000000000000000000000000000000000008152509050610c88565b6040805190810160405280601c81526020017f7468657265206973206e6f2073746167652061742070726573656e740000000081525090505b90565b6000610cb6600754610ca86004548561252790919063ffffffff16565b61255a90919063ffffffff16565b9050600c5460011415610cfb57610cf4610ce582600d60030160009054906101000a900460ff1660ff16612575565b82610f1290919063ffffffff16565b9050610e09565b600c5460021415610dc85762015180600d600101540142111515610d8f57600d60030160019054906101000a900460ff1660ff1660001415610d57576014600d60030160016101000a81548160ff021916908360ff1602179055505b610d88610d7982600d60030160019054906101000a900460ff1660ff16612575565b82610f1290919063ffffffff16565b9050610dc3565b610dc0610db182600d60030160009054906101000a900460ff1660ff16612575565b82610f1290919063ffffffff16565b90505b610e08565b600c5460031415610e0757610e04610df582600d60030160009054906101000a900460ff1660ff16612575565b82610f1290919063ffffffff16565b90505b5b5b80600d600001541015610ec6577f85b8d86f52e6555fa7f5d8f5e1fe2dbca432512924156cc733ad10ba881c121c610e3f610b26565b6040518080602001828103825283818151815260200191508051906020019080838360005b83811015610e7f578082015181840152602081019050610e64565b50505050905090810190601f168015610eac5780820380516001836020036101000a031916815260200191505b509250505060405180910390a1610ec1610add565b600080fd5b610ede81600d600001546125a590919063ffffffff16565b600d60000181905550610efc816006546125a590919063ffffffff16565b600681905550610f0d3084836125be565b505050565b6000808284019050838110151515610f2657fe5b8091505092915050565b60065481565b60018054600181600116156101000203166002900480601f016020809104026020016040519081016040528092919081815260200182805460018160011615610100020316600290048015610fcc5780601f10610fa157610100808354040283529160200191610fcc565b820191906000526020600020905b815481529060010190602001808311610faf57829003601f168201915b505050505081565b600081600960003373ffffffffffffffffffffffffffffffffffffffff1673ffffffffffffffffffffffffffffffffffffffff16815260200190815260200160002060008573ffffffffffffffffffffffffffffffffffffffff1673ffffffffffffffffffffffffffffffffffffffff168152602001908152602001600020819055506001905092915050565b60055481565b6000600960008573ffffffffffffffffffffffffffffffffffffffff1673ffffffffffffffffffffffffffffffffffffffff16815260200190815260200160002060003373ffffffffffffffffffffffffffffffffffffffff1673ffffffffffffffffffffffffffffffffffffffff1681526020019081526020016000205482111515156110f457600080fd5b61118382600960008773ffffffffffffffffffffffffffffffffffffffff1673ffffffffffffffffffffffffffffffffffffffff16815260200190815260200160002060003373ffffffffffffffffffffffffffffffffffffffff1673ffffffffffffffffffffffffffffffffffffffff168152602001908152602001600020546125a590919063ffffffff16565b600960008673ffffffffffffffffffffffffffffffffffffffff1673ffffffffffffffffffffffffffffffffffffffff16815260200190815260200160002060003373ffffffffffffffffffffffffffffffffffffffff1673ffffffffffffffffffffffffffffffffffffffff1681526020019081526020016000208190555061120e8484846125be565b600190509392505050565b600d8060000154908060010154908060020154908060030160009054906101000a900460ff16908060030160019054906101000a900460ff16905085565b6000809054906101000a900473ffffffffffffffffffffffffffffffffffffffff1673ffffffffffffffffffffffffffffffffffffffff163373ffffffffffffffffffffffffffffffffffffffff161415156112b257600080fd5b8173ffffffffffffffffffffffffffffffffffffffff166108fc829081150290604051600060405180830381858888f1935050505015156112f257600080fd5b5050565b60035481565b6000809054906101000a900473ffffffffffffffffffffffffffffffffffffffff1673ffffffffffffffffffffffffffffffffffffffff163373ffffffffffffffffffffffffffffffffffffffff1614151561135757600080fd5b6000600a60006101000a81548160ff0219169083151502179055507f9b1d6b460eaa8350c2f15712231e94c803e08e072db0737a0efb84745848694060405160405180910390a1565b60008060009054906101000a900473ffffffffffffffffffffffffffffffffffffffff1673ffffffffffffffffffffffffffffffffffffffff163373ffffffffffffffffffffffffffffffffffffffff161415156113fd57600080fd5b81600860003373ffffffffffffffffffffffffffffffffffffffff1673ffffffffffffffffffffffffffffffffffffffff168152602001908152602001600020541015151561144b57600080fd5b61149d82600860003373ffffffffffffffffffffffffffffffffffffffff1673ffffffffffffffffffffffffffffffffffffffff168152602001908152602001600020546125a590919063ffffffff16565b600860003373ffffffffffffffffffffffffffffffffffffffff1673ffffffffffffffffffffffffffffffffffffffff168152602001908152602001600020819055506114f5826005546125a590919063ffffffff16565b600581905550611510826006546125a590919063ffffffff16565b6006819055503373ffffffffffffffffffffffffffffffffffffffff167fcc16f5dbb4873280815c1ee09dbd06736cffcc184412cf7a71a0fdb75d397ca5836040518082815260200191505060405180910390a260019050919050565b6000809054906101000a900473ffffffffffffffffffffffffffffffffffffffff1673ffffffffffffffffffffffffffffffffffffffff163373ffffffffffffffffffffffffffffffffffffffff161415156115c857600080fd5b6006546004548602111515156115dd57600080fd5b83600b8190555060a06040519081016040528060045487028152602001858152602001620151808502860181526020018360ff1681526020018260ff16815250600d60008201518160000155602082015181600101556040820151816002015560608201518160030160006101000a81548160ff021916908360ff16021790555060808201518160030160016101000a81548160ff021916908360ff1602179055509050506116986001600c54610f1290919063ffffffff16565b600c819055506116a66112fc565b5050505050565b600a60009054906101000a900460ff1681565b600080600960003373ffffffffffffffffffffffffffffffffffffffff1673ffffffffffffffffffffffffffffffffffffffff16815260200190815260200160002060008573ffffffffffffffffffffffffffffffffffffffff1673ffffffffffffffffffffffffffffffffffffffff168152602001908152602001600020549050808311156117d1576000600960003373ffffffffffffffffffffffffffffffffffffffff1673ffffffffffffffffffffffffffffffffffffffff16815260200190815260200160002060008673ffffffffffffffffffffffffffffffffffffffff1673ffffffffffffffffffffffffffffffffffffffff16815260200190815260200160002081905550611865565b6117e483826125a590919063ffffffff16565b600960003373ffffffffffffffffffffffffffffffffffffffff1673ffffffffffffffffffffffffffffffffffffffff16815260200190815260200160002060008673ffffffffffffffffffffffffffffffffffffffff1673ffffffffffffffffffffffffffffffffffffffff168152602001908152602001600020819055505b8373ffffffffffffffffffffffffffffffffffffffff163373ffffffffffffffffffffffffffffffffffffffff167f8c5be1e5ebec7d5bd14f71427d1e84f3dd0314c0f7b2291e5b200ac8c7c3b925600960003373ffffffffffffffffffffffffffffffffffffffff1673ffffffffffffffffffffffffffffffffffffffff16815260200190815260200160002060008873ffffffffffffffffffffffffffffffffffffffff1673ffffffffffffffffffffffffffffffffffffffff168152602001908152602001600020546040518082815260200191505060405180910390a3600191505092915050565b60086020528060005260406000206000915090505481565b60008060009054906101000a900473ffffffffffffffffffffffffffffffffffffffff1673ffffffffffffffffffffffffffffffffffffffff163373ffffffffffffffffffffffffffffffffffffffff161415156119c657600080fd5b81600860008573ffffffffffffffffffffffffffffffffffffffff1673ffffffffffffffffffffffffffffffffffffffff1681526020019081526020016000205410151515611a1457600080fd5b600960008473ffffffffffffffffffffffffffffffffffffffff1673ffffffffffffffffffffffffffffffffffffffff16815260200190815260200160002060003373ffffffffffffffffffffffffffffffffffffffff1673ffffffffffffffffffffffffffffffffffffffff168152602001908152602001600020548211151515611a9f57600080fd5b611af182600860008673ffffffffffffffffffffffffffffffffffffffff1673ffffffffffffffffffffffffffffffffffffffff168152602001908152602001600020546125a590919063ffffffff16565b600860008573ffffffffffffffffffffffffffffffffffffffff1673ffffffffffffffffffffffffffffffffffffffff16815260200190815260200160002081905550611bc382600960008673ffffffffffffffffffffffffffffffffffffffff1673ffffffffffffffffffffffffffffffffffffffff16815260200190815260200160002060003373ffffffffffffffffffffffffffffffffffffffff1673ffffffffffffffffffffffffffffffffffffffff168152602001908152602001600020546125a590919063ffffffff16565b600960008573ffffffffffffffffffffffffffffffffffffffff1673ffffffffffffffffffffffffffffffffffffffff16815260200190815260200160002060003373ffffffffffffffffffffffffffffffffffffffff1673ffffffffffffffffffffffffffffffffffffffff16815260200190815260200160002081905550611c58826005546125a590919063ffffffff16565b600581905550611c73826006546125a590919063ffffffff16565b6006819055508273ffffffffffffffffffffffffffffffffffffffff167fcc16f5dbb4873280815c1ee09dbd06736cffcc184412cf7a71a0fdb75d397ca5836040518082815260200191505060405180910390a26001905092915050565b6000809054906101000a900473ffffffffffffffffffffffffffffffffffffffff1673ffffffffffffffffffffffffffffffffffffffff163373ffffffffffffffffffffffffffffffffffffffff16141515611d2c57600080fd5b6001600a60006101000a81548160ff0219169083151502179055507fd2ef4ae6592c2a8f5d1c602eaa8a0685727b41b23509703db861621a9614813a60405160405180910390a1565b60075481565b60028054600181600116156101000203166002900480601f016020809104026020016040519081016040528092919081815260200182805460018160011615610100020316600290048015611e115780601f10611de657610100808354040283529160200191611e11565b820191906000526020600020905b815481529060010190602001808311611df457829003601f168201915b505050505081565b60008060009054906101000a900473ffffffffffffffffffffffffffffffffffffffff1673ffffffffffffffffffffffffffffffffffffffff163373ffffffffffffffffffffffffffffffffffffffff16141515611e7657600080fd5b6000831415611e8457600192505b6000821415611e9257600191505b611eb982611eab6004548661252790919063ffffffff16565b61255a90919063ffffffff16565b6007819055506001905092915050565b611ed43383836125be565b5050565b600c5481565b600b5481565b6000806000809054906101000a900473ffffffffffffffffffffffffffffffffffffffff1673ffffffffffffffffffffffffffffffffffffffff163373ffffffffffffffffffffffffffffffffffffffff16141515611f4257600080fd5b849050611f4f8585610fd4565b156120b4578073ffffffffffffffffffffffffffffffffffffffff16638f4ffcb1338630876040518563ffffffff167c0100000000000000000000000000000000000000000000000000000000028152600401808573ffffffffffffffffffffffffffffffffffffffff1673ffffffffffffffffffffffffffffffffffffffff1681526020018481526020018373ffffffffffffffffffffffffffffffffffffffff1673ffffffffffffffffffffffffffffffffffffffff16815260200180602001828103825283818151815260200191508051906020019080838360005b8381101561204957808201518184015260208101905061202e565b50505050905090810190601f1680156120765780820380516001836020036101000a031916815260200191505b5095505050505050600060405180830381600087803b151561209757600080fd5b6102c65a03f115156120a857600080fd5b505050600191506120b5565b5b509392505050565b6000809054906101000a900473ffffffffffffffffffffffffffffffffffffffff1673ffffffffffffffffffffffffffffffffffffffff163373ffffffffffffffffffffffffffffffffffffffff1614151561211857600080fd5b61212d816006546125a590919063ffffffff16565b60068190555061213e3083836125be565b5050565b60006121d382600960003373ffffffffffffffffffffffffffffffffffffffff1673ffffffffffffffffffffffffffffffffffffffff16815260200190815260200160002060008673ffffffffffffffffffffffffffffffffffffffff1673ffffffffffffffffffffffffffffffffffffffff16815260200190815260200160002054610f1290919063ffffffff16565b600960003373ffffffffffffffffffffffffffffffffffffffff1673ffffffffffffffffffffffffffffffffffffffff16815260200190815260200160002060008573ffffffffffffffffffffffffffffffffffffffff1673ffffffffffffffffffffffffffffffffffffffff168152602001908152602001600020819055508273ffffffffffffffffffffffffffffffffffffffff163373ffffffffffffffffffffffffffffffffffffffff167f8c5be1e5ebec7d5bd14f71427d1e84f3dd0314c0f7b2291e5b200ac8c7c3b925600960003373ffffffffffffffffffffffffffffffffffffffff1673ffffffffffffffffffffffffffffffffffffffff16815260200190815260200160002060008773ffffffffffffffffffffffffffffffffffffffff1673ffffffffffffffffffffffffffffffffffffffff168152602001908152602001600020546040518082815260200191505060405180910390a36001905092915050565b60115481565b6009602052816000526040600020602052806000526040600020600091509150505481565b6000809054906101000a900473ffffffffffffffffffffffffffffffffffffffff1673ffffffffffffffffffffffffffffffffffffffff163373ffffffffffffffffffffffffffffffffffffffff161415156123c457600080fd5b6123ce8282610c8b565b5050565b6000809054906101000a900473ffffffffffffffffffffffffffffffffffffffff1673ffffffffffffffffffffffffffffffffffffffff163373ffffffffffffffffffffffffffffffffffffffff1614151561242d57600080fd5b600073ffffffffffffffffffffffffffffffffffffffff168173ffffffffffffffffffffffffffffffffffffffff161415151561246957600080fd5b8073ffffffffffffffffffffffffffffffffffffffff166000809054906101000a900473ffffffffffffffffffffffffffffffffffffffff1673ffffffffffffffffffffffffffffffffffffffff167f8be0079c531659141344cd1fd0a4f28419497f9722a3daafe3b4186f6b6457e060405160405180910390a3806000806101000a81548173ffffffffffffffffffffffffffffffffffffffff021916908373ffffffffffffffffffffffffffffffffffffffff16021790555050565b60008082840290506000841480612548575082848281151561254557fe5b04145b151561255057fe5b8091505092915050565b600080828481151561256857fe5b0490508091505092915050565b600061259d606461258f848661252790919063ffffffff16565b61255a90919063ffffffff16565b905092915050565b60008282111515156125b357fe5b818303905092915050565b6000808373ffffffffffffffffffffffffffffffffffffffff16141515156125e557600080fd5b81600860008673ffffffffffffffffffffffffffffffffffffffff1673ffffffffffffffffffffffffffffffffffffffff168152602001908152602001600020541015151561263357600080fd5b600860008473ffffffffffffffffffffffffffffffffffffffff1673ffffffffffffffffffffffffffffffffffffffff168152602001908152602001600020546126c583600860008773ffffffffffffffffffffffffffffffffffffffff1673ffffffffffffffffffffffffffffffffffffffff16815260200190815260200160002054610f1290919063ffffffff16565b1115156126d157600080fd5b612762600860008573ffffffffffffffffffffffffffffffffffffffff1673ffffffffffffffffffffffffffffffffffffffff16815260200190815260200160002054600860008773ffffffffffffffffffffffffffffffffffffffff1673ffffffffffffffffffffffffffffffffffffffff16815260200190815260200160002054610f1290919063ffffffff16565b90506127b682600860008773ffffffffffffffffffffffffffffffffffffffff1673ffffffffffffffffffffffffffffffffffffffff168152602001908152602001600020546125a590919063ffffffff16565b600860008673ffffffffffffffffffffffffffffffffffffffff1673ffffffffffffffffffffffffffffffffffffffff1681526020019081526020016000208190555061284b82600860008673ffffffffffffffffffffffffffffffffffffffff1673ffffffffffffffffffffffffffffffffffffffff16815260200190815260200160002054610f1290919063ffffffff16565b600860008573ffffffffffffffffffffffffffffffffffffffff1673ffffffffffffffffffffffffffffffffffffffff168152602001908152602001600020819055508273ffffffffffffffffffffffffffffffffffffffff168473ffffffffffffffffffffffffffffffffffffffff167fddf252ad1be2c89b69c2b068fc378daa952ba7f163c4a11628f55a4df523b3ef846040518082815260200191505060405180910390a380612985600860008673ffffffffffffffffffffffffffffffffffffffff1673ffffffffffffffffffffffffffffffffffffffff16815260200190815260200160002054600860008873ffffffffffffffffffffffffffffffffffffffff1673ffffffffffffffffffffffffffffffffffffffff16815260200190815260200160002054610f1290919063ffffffff16565b14151561298e57fe5b50505050565b6020604051908101604052806000815250905600a165627a7a7230582072618fd9bb3dc26cd32f9913f80442b63bf2ae99a744194e02dc88a5220a0feb0029",
  "source": "pragma solidity ^0.4.18;\r\nimport \"./ERC20Extending.sol\";\r\nimport \"./StreamityCrowdsale.sol\";\r\n\r\ncontract StreamityContract is ERC20Extending, StreamityCrowdsale\r\n{\r\n    using SafeMath for uint;\r\n\r\n    uint public weisRaised;  // how many weis was raised on crowdsale\r\n\r\n    function StreamityContract() public TokenERC20(130000000, \"Streamity\", \"STM\") {} //change before send !!!\r\n\r\n    /**\r\n    * Function payments handler\r\n    *\r\n    */\r\n    function() public payable\r\n    {\r\n        assert(msg.value >= 1 ether / 10 && msg.value <= 100 * 1 ether);\r\n        require(now >= ICO.startDate);\r\n\r\n        if (now > ICO.endDate) {\r\n            pauseInternal();\r\n            CrowdSaleFinished(crowdSaleStatus());\r\n        }\r\n\r\n        if (0 != startIcoDate) {\r\n            if (now < startIcoDate) {\r\n                revert();\r\n            } else {\r\n                startIcoDate = 0;\r\n            }\r\n        }\r\n\r\n        sell(msg.sender, msg.value);\r\n\r\n        weisRaised = weisRaised.add(msg.value);\r\n    }\r\n}\r\n",
  "sourcePath": "C:\\Users\\pirno\\Desktop\\stm-smartcontract\\contracts\\StreamityContract.sol",
  "compiler": {
    "name": "solc",
    "version": "0.4.18+commit.9cf6e910.Emscripten.clang"
  },
  "schemaVersion": "1.0.1",
  "updatedAt": "2017-12-12T00:00:01.619Z"
}